:020000040800F2
:10000000C8140020450100084F210008C71B000844
:100010004D2100080D050008752F000800000000A4
:10002000000000000000000000000000D12B0008CC
:100030000F0500080000000071210008D32B000804
:100040005F0100085F0100085F0100085F01000810
:100050005F0100085F0100085F0100085F01000800
:100060005F0100085F0100085F0100085F010008F0
:100070005F0100085F0100085F0100085F010008E0
:100080005F0100085F0100085F0100085F010008D0
:100090005F0100085F0100085F0100085F010008C0
:1000A0005F0100085F0100085F0100085F010008B0
:1000B0005F0100085F0100085F0100085F010008A0
:1000C0005F0100085F0100085F0100085F01000890
:1000D0005F010008692F00085F0100085F01000848
:1000E0005F0100085F0100085F0100085F01000870
:1000F0005F0100085F0100085F0100085F01000860
:100100005F0100085F0100085F0100085F0100084F
:100110005F0100085F0100085F0100085F0100083F
:100120005F0100085F0100085F0100085F0100082F
:10013000DFF80CD000F02AF900480047C148000859
:10014000C81400200648804706480047FEE7FEE73F
:10015000FEE7FEE7FEE7FEE7FEE7FEE7FEE7FEE777
:10016000252C000831010008202A04DB203A21FA5E
:1001700002F00021704721FA02F3D040C2F12002C0
:100180009140084319467047D2B201E000F8012BB4
:10019000491EFBD270470022F6E710B513460A4607
:1001A00004461946FFF7F0FF204610BD421E12F824
:1001B000013F002BFBD111F8013B02F8013B002B62
:1001C000F9D1704730B505462A460B4612F8010BA7
:1001D00013F8014B08B1A042F8D01CB1002802D09E
:1001E0006D1CF1E7284630BD10B5044604E00B78DD
:1001F00000F8013B03B1491C521EF8D2204610BD45
:10020000421C10F8011B0029FBD1801A704710B561
:10021000002200E0521C835C8C5CA34201D1002BC5
:10022000F8D1D8B2E1B2401A10BD034611F8012B43
:1002300000F8012B002AF9D11846704770B50F4D10
:1002400000B92868002412E00A4602E09E4203D06A
:10025000521C1378002BF9D1DAB2224305D02BB10E
:1002600024B1002100F8011B04E00446401C06787C
:10027000002EE9D12860204670BD00005800002003
:1002800070B5064602F08CFE046805460A2200217D
:10029000304600F042F82C6070BD2DE9F05F054655
:1002A000002092469B4688460646814640241BE035
:1002B0002846414647462246FFF756FF53465A46D0
:1002C000C01A914110D311461846224600F016F884
:1002D0002D1A67EB01084F4622460120002100F04D
:1002E0000DF817EB00094E41201EA4F10104DFDCDC
:1002F000484631462A464346BDE8F09F202A04DBA3
:10030000203A00FA02F1002070479140C2F1200328
:1003100020FA03F31943904070472DE9F0479146C6
:100320000F4680460446002614F8015B2DB100F00C
:100330003FF80068405DC007F6D12B2D02D02D2D6F
:1003400018D0641E4A463946204600F035F827B1D9
:100350003968A14201D1C7F8008071054FF002044D
:100360000BD54042002803DD02F01AFE0460A0070E
:10037000BDE8F08746F48066E4E70028F8DA02F08A
:100380000FFE04606FF00040F2E70000064C074DDE
:1003900006E0E06840F0010394E807009847103455
:1003A000AC42F6D3FFF7C8FEF807030818080308A5
:1003B00000487047E80703082DE9F05F824600789F
:1003C000002715468B460AF10104B946302801D0B2
:1003D0009DB113E014F8010B0127782803D05828A9
:1003E00001D045B10AE00DB1102D07D1002710252D
:1003F00014F8010B02E0082500E00A250026B046AB
:100400000EE005FB080005FB06F1012701EB104695
:100410001FFA80F8B6F5803F00D3B94614F8010BF7
:10042000294600F018F80028EBDABBF1000F05D0E0
:100430000FB1641E00E05446CBF80040B9F1000F44
:1004400006D002F0ADFD02210160C81EBDE8F09F9C
:1004500048EA0640FAE73A2800D2303820F0200275
:10046000412A01D3A2F13700884201D34FF0FF3077
:10047000704700000146014800F057BF7C00002093
:1004800010B5044800F063FF042801D0012010BD1E
:10049000002010BD7C00002038B501208DF8000040
:1004A0009DF80000012801D0012038BD064800F069
:1004B00064FF040006D14FF40061034800F00CFE15
:1004C00000B10124204638BD7C00002038B500244E
:1004D000009313460A460146034800F0D5FF00B1D9
:1004E0000124204638BD00007C00002038B50024DF
:1004F000009313460A460146034801F09FF800B1F5
:100500000124204638BD00007C000020FEE7704733
:1005100001B5009801E0401E00900028FBD108BD05
:10052000002200F001B8000030B50E4B0546012056
:100530005C7A012C15D8587A00241C54587A03EBA5
:10054000800045605D7A03F108002A54587A421C05
:100550005A72303008703A2048702F208870CC7062
:10056000002030BDB808002030B5B3F5804F05D06D
:100570006FF0704140F82210002030BD8C690B688C
:100580008D6823434C688989240144EA0524234368
:1005900043EA014150F82230014C23401943E9E776
:1005A0000000F0CF30B50A6850F8223023F0010384
:1005B00040F822308C68204B4A68082C1ED0224319
:1005C000D1E903452C4322434C6922438C692243E1
:1005D000CC6922430C6A22434C6A22438C6A224330
:1005E000CC6A22430C6B0968224350F821401C401E
:1005F00052EA040240F82120002030BDD1E9034531
:1006000042F008022C4322434C6922438C69224366
:10061000CC6922430C6A22434C6A22438C6A2243EF
:10062000CC6A22430C6B0968224350F821401C40DD
:10063000224342F04002DDE78100F7FF30B5D1E907
:10064000003443EA04138C688D89240244EA05448B
:1006500023430C8A094D00EB820005EB045423432D
:100660000C7D6D0105EB0464896923430B434168EC
:1006700001F040410B434360002030BD0000F0FF1B
:1006800010B5040002D0607910B106E0012010BD61
:1006900000202071204600F005F801206071002044
:1006A00010BD000008B500680649884208D1064818
:1006B000416941F040014161406900F04000009013
:1006C00008BD000000300240001002402DE9F05F3C
:1006D00090F821100024022903D004218163012411
:1006E00085E001680A6822F00E020A6001680A6863
:1006F00022F001020A603F4E3E4FB215DFF8F4C00F
:10070000DFF8F090DFF8ECA0DFF8E8B0DFF8E4E025
:100710000168783F13011502ACF1640CA9F150098E
:10072000AAF13C0AABF1280BAEF1140E4FF480187D
:10073000B14227D9B9420ED0614512D049451DD0EA
:10074000514518D0594518D0714501D1424615E0A0
:10075000294EB14201D1012210E0274E1436B14298
:1007600001D110220AE0244E2836B14206D0224A96
:100770003C32914201D11A4600E02A461E49091F27
:100780000A602BE0B94213D0614517D0494522D009
:1007900051451DD059451DD0714501D142461AE041
:1007A000B14202D14FF0807215E0134EB14201D137
:1007B000012210E0104E1436B14201D110220AE09D
:1007C0000D4E2836B14206D00B4A3C32914201D13F
:1007D0001A4600E02A46074980394A60012180F81C
:1007E0002110002180F82010416B01B1884720467C
:1007F000BDE8F09F800002400804024070B5044646
:1008000000F040F90546601C02D00448007804441A
:1008100000F038F9401BA042FAD370BD3C00002024
:1008200030B585B0002000900190029003901248EE
:10083000016800291ED1012101601048416941F47D
:10084000807141614069022400F4807004904FF689
:100850008070CDE90004032569460395084800F03F
:1008600013F84CF6B370CDE90004694603950548CA
:1008700000F00AF805B030BD34000020001002403E
:1008800000180140001401402DE9F84FDFF8B8A12D
:1008900000220AF1040B144601274FF00F090BF157
:1008A000040E00BF0B6807FA04F52B40AB4274D16D
:1008B000DFF898C14E68A6EB0C0866452BD00DDC1E
:1008C000032E34D005DC36B3012E19D0022E2FD1E1
:1008D0001BE0112E16D0122E2AD119E0B8F5881F70
:1008E00019D006DCB8F5803F15D0B8F5801F1FD1B0
:1008F00011E0B8F5001F0ED0B8F5041F18D10AE0BA
:10090000CA6815E0CA68121D12E0CA6808320FE012
:10091000CA680C320CE08A682AB1012A4FF008023A
:1009200003D0456104E0042202E0056100E00022FA
:10093000FF2B01D8064601E000F104064FEA8405CA
:1009400001D9A5F12005D6F800C009FA05F82CEA6E
:10095000080C02FA05F54CEA050CC6F800C04D6813
:10096000ED006AD53A4DAE6946F00106AE61AD695B
:1009700024F0030605F001050095364D06EB050C45
:10098000DCF80850A6074FEA167809FA08F6B543CE
:10099000314EB04202D100261AE04EE02F4EB04256
:1009A00001D1012614E02E4EB04201D102260FE003
:1009B0002C4EB04201D103260AE02B4EB04201D1A9
:1009C000042605E0294EB04201D1052600E00626A6
:1009D00006FA08F62E43CCF808604D68DAF8006095
:1009E000ED03554601D51E4300E09E432E604D6841
:1009F000AD0305D5DBF800601E43CBF8006004E0D2
:100A0000DBF800509D43CBF800504D68DEF80060E5
:100A1000ED02754601D51E4300E09E432E604D68F1
:100A2000AD0205D5084D0C352E681E432E6004E03E
:100A3000054E0C3635689D433560641C102CFFF460
:100A400031AFBDE8F88F0000000401400000111034
:100A5000001002400000014000080140000C01406D
:100A6000001001400014014000180140001C01402A
:100A70008068084000D0012070470AB101617047CA
:100A80000904FBE701488068704700003C00002033
:100A90000248816802781144816070473C00002060
:100AA000074810B5016841F010010160032000F013
:100AB00073F8002000F006F800F024F8002010BDC4
:100AC0000020024070B50D4D04464FF47A7128782D
:100AD000B1FBF0F00A490968B1FBF0F000F0A8FEA4
:100AE00048B9102C07D200222146501E00F034F8DD
:100AF00000206C6070BD012070BD00003C00002033
:100B0000480000200C4808B5816941F0010181616D
:100B1000816901F001010091C16941F08051C16119
:100B2000C06900F0805000900448416821F0E06105
:100B300041F00071416008BD00100240000001401A
:100B400000F01F02012191404009800000F1E020E7
:100B5000C0F8001170470000F0B40E4B1B680C4643
:100B6000C3F30223C3F10705042D00D90425191D81
:100B7000072901D2002300E0DB1E012606FA05F159
:100B8000491E214099409E40761E16403143F0BCDC
:100B900001F0DEBA0CED00E0064900F0070208683B
:100BA0004FF6FF03184040EA0220034A1043086052
:100BB000704700000CED00E00000FA052DE9F04759
:100BC000DFF8548105460E46D8F8000000F0070013
:100BD000B0420CD2D8F8001021F007013143C8F818
:100BE0000010D8F8000000F00700B0426FD128686C
:100BF0004A4C810712D5400703D5606840F4E06095
:100C000060602878000703D5606840F46050606039
:100C10006068A96820F0F000084360602878C00789
:100C200044D06868012816D02168022816D08907A8
:100C300000294CDA616821F0030101436160FFF78C
:100C400021FF6968074641F2883001290ED0022948
:100C5000814618D026E021688903E9E78901E7E7A2
:100C6000FFF710FFC11B494501D918E081466068B4
:100C7000C0F381000128F3D118E000BFFFF702FFA5
:100C8000C11B49450BD86068C0F381000228F5D12B
:100C90000CE000BFFFF7F6FEC11B494502D9032057
:100CA000BDE8F087606810F00C0FF3D1D8F80010A1
:100CB000404601F00701B1420BD9016821F007015C
:100CC00031430160006800F00700B04201D001200C
:100CD000E6E72878400705D56068E96820F4E06019
:100CE000084360602878000706D56068296920F409
:100CF000605040EAC100606000F036F86168084A60
:100D0000C1F30311515CC840064908600020FFF799
:100D1000D9FE0020C4E7000000200240001002407D
:100D2000345A000848000020044805490068496812
:100D3000044AC1F30221515CC840704748000020BA
:100D400000100240445A00080448054900684968F8
:100D5000044AC1F3C221515CC840704748000020DA
:100D600000100240445A000812A185B00FC98DE856
:100D70000F0014A0144A006804905168134801F051
:100D80000C03042B10D0082B0ED1C1F38343C903ED
:100D90001DF803000AD5516804AAC1F34041515C13
:100DA0000A4A5043B0FBF1F005B070470849484388
:100DB000FAE7000002030405060708090A0B0C0DF8
:100DC0000E0F1010010200000010024000127A0005
:100DD00000093D002DE9F84F04460078B94DC007E1
:100DE00048D06868C0F38100012807D06868C0F364
:100DF0008100022809D16868C00306D528688003ED
:100E000038D5606800286FD034E06068B0F5803F66
:100E10000BD010B1B0F5A02F11D0286820F480308D
:100E20002860286820F4802002E0286840F48030A0
:100E30002860606888B1FFF725FE064609E028684B
:100E400040F480202860F0E7FFF71CFE801B642838
:100E500075D828688003F7D50CE0FFF713FE064627
:100E600005E000BFFFF70EFE801B6428F0D828685D
:100E70008003F7D42078944E80074FF001094FF09B
:100E800000083BD5686810F00C0F07D06868C0F305
:100E90008100022809D16868C00306D42868800749
:100EA00014D5206901281FD110E02069B0B1C6F81F
:100EB0000090FFF7E7FD074605E000BFFFF7E2FD02
:100EC000C01B0228C4D828688007F7D52868616944
:100ED00020F0F80040EAC10028600FE0C6F800806A
:100EE000FFF7D0FD074606E0E9E000BFFFF7CAFDC7
:100EF000C01B022823D828688007F7D42078000771
:100F00002CD57248A169D9B1C0F80090FFF7BAFD9D
:100F1000074604E0FFF7B6FDC01B02280FD8686A39
:100F20008007F7D56A484FF4FA510068B0FBF1F03A
:100F3000009000BF0098411E0091FAD20EE080E0C0
:100F4000C0F80080FFF79EFD074604E0FFF79AFD1A
:100F5000C01B022875D8686A8007F7D4207840073C
:100F600060D5E8690027C00008D4E86940F08050E7
:100F7000E861E869012700F0805000905548016859
:100F8000C90513D40168834641F480710160FFF7FD
:100F900079FD824606E000BFFFF774FDA0EB0A0072
:100FA00064284ED8DBF80000C005F5D5E0680128BC
:100FB0000AD008B1052813D0286A20F00100286261
:100FC000286A20F0040002E0286A40F0010028624C
:100FD000E06841F2883B98B1FFF754FD82460BE090
:100FE000286A40F004002862EEE700BFFFF74AFDE0
:100FF000A0EB0A0159455AD8286A8007F6D50CE0BB
:10100000FFF740FD824605E0FFF73CFDA0EB0A013B
:1010100059454CD8286A8007F6D41FB1E86920F0FA
:101020008050E861E06988B36968C1F381010229F1
:1010300045D00228C6F8608004D0FFF723FD04469F
:1010400038E034E0FFF71EFD074604E0FFF71AFD25
:10105000C01B02282BD828688001F7D4206AB0F57D
:10106000803F05D16868A16820F4003008436860BB
:10107000D4E908010843696821F4741108436860E1
:10108000C6F86090FFF7FEFC044606E015E000BFDE
:10109000FFF7F8FC001B022809D828688001F7D563
:1010A0000BE000BFFFF7EEFC001B022802D9032073
:1010B000BDE8F88F28688001F4D40020F8E701200B
:1010C000F6E7000000100240000042428004424265
:1010D0004800002000700040FEB5044603200D4685
:1010E00084F83400606C032820D0B5F5805F1DD0F3
:1010F000B5F5006F05D045B1A06B40F00060A0636E
:1011000009E0204601F0B9FC02E0204601F08EFC27
:10111000A16B0143A163A06B012658B1216840F285
:10112000FF50886384F834600120FEBDA06B40F05E
:101130008050E4E7211DD4E905700EC90095CDE982
:101140000170206801F031F884F834600020FEBDA1
:10115000F0B5426E120E93090B70C2F383034B700D
:1011600002F003028A70426E120CCA70B0F864205A
:10117000120A0A7190F864204A71826E4FF6FF736A
:10118000120E03EA0212CA80826ECB88C2F30742B3
:1011900043EA1213CB8002F00F020A72B0F8682003
:1011A000C2F30722D3094B72C2F380138B72C2F3CE
:1011B0004013CB72C2F300130B7300264E73446CC2
:1011C0004FF4007701236CB1012C43D0026840F248
:1011D000FF519163816B41F08051816380F834301D
:1011E0000120F0BD9207120D0A6190F868200C6989
:1011F00044EA82020A61C26E0C69120E44EA921439
:101200000C61C2F3C2040C7502F007024A75C26E8B
:10121000C2F3074254098C75C2F38204CC7592075D
:10122000520F0A76B0F86C20C2F307240A7E42EA15
:10123000D4120A760A69521C42650D7EAD1CAA4082
:1012400042650D7A03FA05F585656D0A6A43C0E9C2
:1012500017271CE090F868209206920A0A61C26E75
:101260000C69120E44EA02220A61C26E0C69C2F3D2
:10127000074214430C61B0F86C20C2F307240A69DA
:10128000521C4FEA82224265C0E916720766C4F317
:10129000801201F8192F4FEA84624FEA52624A70B5
:1012A00010F86C2F4C7844EAD2144C7002F07F0294
:1012B0008A7042684FEA12624FEAD214CC70C2F3CD
:1012C00041140C71C2F382044C714FEA82724FEAEE
:1012D00012728A7142688C79C2F3074244EA92140E
:1012E0008C71C2F34014CC710E7202F001024A728A
:1012F0008288C2F307224FEAD2148C72C2F38014A0
:10130000CC72C2F340140C73C2F300144C73C2F3DA
:1013100081048C7302F00302CA7300794FEA500013
:1013200008744B744FF00000F0BD426C0A60826C90
:101330004A60C26C8A60026DCA60426D0A61826D49
:101340004A61C26D8A61006EC8610020704770B545
:101350000446B0F8500000250104206801F0A3F80D
:1013600018B1A16B0143A16304E00021206800F0E3
:1013700016FF0546C5F3432070BD70B5040004D0C8
:1013800094F83400002510B105E0012070BD2577E8
:10139000204600F037F8032084F83400204600F09F
:1013A00007F8A5632563012084F83400002070BD90
:1013B000FEB500250446C3200095CDE901502B461B
:1013C0002A462946206800F0F0FE0D4E46F8A05F40
:1013D000206800F0FCFE012535600220FFF70EFAC0
:1013E000204601F0D2FA20B9204601F05BFA00282D
:1013F00005D084F83450A16B0143A1630120FEBDE8
:101400000000304230B585B0002100910191029179
:1014100003910068184988422BD11848416941F46A
:1014200080614161416901F480610491816941F009
:1014300010018161816901F010010491816941F01D
:10144000200181618069022400F0200004904FF4A3
:10145000F850CDE900040325694603950848FFF7D5
:1014600013FA0420CDE90004694603950548FFF707
:101470000BFA05B030BD00000080014000100240B2
:1014800000100140001401402DE9F04F87B09A464A
:1014900017460E460446DDF840B0FFF7F3FA009019
:1014A0003EB194F83400012807D0A06B40F0005002
:1014B0000FE0A06B40F000600BE04FF00008C4F8B4
:1014C0003880E06D07EB0A01814204D9A06B40F03F
:1014D0000070A0637DE0032084F834002068C0F829
:1014E0002C80606C012800D07F024FF400712068CE
:1014F00000F0BCFE40F2FF59012530B12268C2F86D
:101500003890A16B0143A16361E04FF0FF3001907F
:101510004FEA4A200290902003900220CDE904086F
:10152000069501A9206800F024FEBAF1010F06D942
:10153000022020633946206800F026FF04E025637E
:101540003946206800F039FF0028D7D140F22A3808
:101550002068416B11EA080F22D1406B000409D5C5
:101560000027206800F037FE46F827007F1C082F70
:10157000F7D32036BBF1000F05D0FFF783FA0099AF
:10158000411A5945E4D32168C1F83890A06B40F066
:101590000040A06384F83450032007B0BDE8F08F0A
:1015A000416BC90509D5BAF1010F06D9616C032950
:1015B00003D000F0A9FF0028A0D12068416B0907E3
:1015C00009D5C0F83890A06B40F0080028E084F8F6
:1015D00034500120E1E7416B890705D5C0F8389008
:1015E000A06B40F002001BE0416B89061AD5C0F8E1
:1015F0003890A06B40F0200012E000BF00F0EBFD3F
:1016000001C6BBF1000F05D0FFF73CFA0099411A63
:10161000594507D32168C1F83890A06B40F00040CD
:10162000A063D4E72068416B8902E7D42168C1F840
:10163000389084F834500020AFE700002DE9F04FD7
:1016400087B09A4616460D460446FFF71BFA0690E9
:101650003DB194F83400012807D0A06B40F0005051
:101660000DE0A06B40F0006009E00020A063E26D97
:1016700006EB0A01914204D9A06B40F00070A06310
:1016800090E0032184F8341021688146C862606CC0
:10169000012800D076024FF40071206800F0E6FDCA
:1016A00040F2FF58012730B12268C2F83880A16BA0
:1016B0000143A16317E0BAF1010F06D9202020638E
:1016C0003146206800F03AFF05E0102020633146E3
:1016D000206800F04CFF060008D02168C1F838806F
:1016E000A06B3043A06384F834705BE04FF0FF30B0
:1016F00000904FEA4A200190902002904846CDE9A0
:101700000407CDF80C90B9466946206800F031FD19
:1017100040F21A3B22E0406B40040AD55FF000071C
:1017200005EB8701206800F069FD7F1C082FF7D3C7
:101730002035109830B1FFF7A5F90699411A109895
:1017400081420BD32168C1F83880A06B3043A0637D
:1017500084F83490032007B0BDE8F08F2068416B17
:1017600011EA0B0FD7D0416BC9050FD5BAF1010FA4
:101770000CD9616C032909D000F0C6FE30B1226893
:10178000C2F83880A16B0143A16309E02068416B76
:10179000090709D5C0F83880A06B40F0080014E0B4
:1017A00084F834900120D6E7416B890705D5C0F84D
:1017B0003880A06B40F0020007E0416BC0F8388031
:1017C000C90604D5A06B40F01000A063E8E784F8D8
:1017D00034900020BFE770B515460E46040003D0D4
:1017E00094F83D0010B107E0012070BD002084F89E
:1017F0003C00204600F01AF804F108012068FEF7CA
:10180000D1FE3146A2682068FEF718FFD4E9010234
:101810002946236BFEF7A8FEA168206850F8212016
:1018200042F0010240F82120002070BDFEF7F8BF11
:1018300010B5401EB0F1807F01D3012010BD4FF0E4
:10184000E02460610F21601700F082FC0020A0619D
:1018500007202061002010BD7047000070B50268AD
:1018600004461068D168536910F00F0F50D003F090
:10187000010501F4907635435DD0C20705D0CA0555
:1018800003D5E26B42F00102E263420705D5DA07B5
:1018900003D0E26B42F00202E263820705D5DA0769
:1018A00003D0E26B42F00402E263020705D5DA07D7
:1018B00003D0E26B42F00802E263E26B002A33D00D
:1018C000800604D5880602D5204601F0E5F9206897
:1018D0004069E16BC0F38010090700D428B32046AB
:1018E00001F0CCF92068416949061AD5416921F017
:1018F00040014161606BA0B11B494163606BFEF721
:10190000E5FE002810D0606B416BBDE870400847D1
:10191000830610D58B060ED52046BDE8704001F039
:10192000BBB92046FFF798FF70BD2046FFF794FF34
:101930000020E06370BD030606D50B0604D52046E3
:10194000BDE8704001F0ACBA4006F3D54806F1D5C9
:10195000D168204621F04001D160202184F839105F
:1019600000F030F970BD00006D2C000870B5040067
:1019700004D094F83900002510B106E0012070BDB4
:1019800084F83850204600F023F8242084F83900E9
:101990002068C16821F40051C160204601F0C8F9F7
:1019A0002068016921F4904101612068416921F0BA
:1019B0002A0141612068C16841F40051C160E563BA
:1019C000202084F8390084F83A00002070BD00001F
:1019D00030B585B00024009401940294039400680B
:1019E000184988422CD11848816941F480418161AD
:1019F000816901F480410491816941F004018161B0
:101A00008069124D00F0040004904FF400700090C3
:101A1000022001900320039069462846FEF734FF18
:101A20002815CDE90004694628460294FEF72CFFEC
:101A3000002211462520FFF78FF82520FFF780F8B8
:101A400005B030BD003801400010024000080140E0
:101A50002DE9F843044690F83A00994616460D469B
:101A600020284FD195B18EB194F83800012849D083
:101A7000012084F838000027E763222084F83A0028
:101A8000FFF700F8A6858046E68531E00120BDE835
:101A9000F883E08D401EE085A0684346B0F5805F86
:101AA0004FF000024FF020012046CDF8009004D006
:101AB00001F027FA98B10320E9E701F022FA0028A3
:101AC000F9D1206900282068406803D0C1B225F808
:101AD000011B0DE0C0F3080125F8021B08E0206996
:101AE00000282068406801D000F07F0005F8010B55
:101AF000E08D0028CDD1202084F83A0084F8387099
:101B00000020C4E70220C2E770472DE9F8430446ED
:101B100090F839001F4616460D46202850D1A5B131
:101B20009EB194F8380001284AD0012084F838008A
:101B30004FF00008C4F83C80212084F83900FEF7FB
:101B4000A1FFA6848146E68426E00120BDE8F88353
:101B5000E08C401EE084A0684B46B0F5805F4FF0FB
:101B600000024FF080012046009703D001F0C9F930
:101B7000E8B90DE001F0C5F9C8B928882168C0F3BB
:101B800008004860206908B16D1C05E0AD1C03E049
:101B9000216815F8010B4860E08C0028D8D14B462D
:101BA000002240212046009701F0ABF908B1032044
:101BB000CCE7202084F8390084F838800020C5E77D
:101BC0000220C3E77047FEE7044B4FF4805108B191
:101BD000002200E001221846FEF74FBF001401402A
:101BE00070B51D461446049E00F0E2F804FB05F0B3
:101BF0003146BDE8704000F0B9B8000070B5203A39
:101C0000D4B21023082200F0D3F82C20C10608809B
:101C10000C490D4B01EB041500204FF6FF742A5CB4
:101C20000021D60702D01F261E8000E01C80491C20
:101C30005208C9B20829F4D3401CC0B21028EED310
:101C400070BD0000445400080000026030B54FF041
:101C5000C0442A2323800C4B050A1D80C5B21D8079
:101C6000401C050A1D80C0B218802B202080080A65
:101C70001880C8B21880491C080A1880C8B2188099
:101C80002C2020801A8030BD000002602DE9FE4F1C
:101C9000161ACDE900104FF000085D1A47464FF0C4
:101CA000FF30002E02DD4FF0010102E003D14FF0C2
:101CB00000018B4602E08346C6F10006002D02DDDE
:101CC0004FF0010002E003D14FF00000824602E035
:101CD0008246C5F10005AE4201DD344600E02C46E7
:101CE000601C4FF0000902901AE000BFDDE900100F
:101CF0000C9AFFF7ABFFB0442F44A04505DD0198D7
:101D0000A8EB0408584480B20190A74204DD009873
:101D10003F1B504480B2009009F101001FFA80F986
:101D200002998945E2DDBDE8FE8F0000F0B5164658
:101D30000D4604464FF4A07714E000BF04F10800FC
:101D4000F02802D900241035ADB205F11000B842D8
:101D500001D90024254629462046FFF74FFF0834C5
:101D6000A4B2761C3278002AE8D1F0BD10B500226A
:101D70002C23DC062380034B01E01980521C824295
:101D8000FBD310BD0000026008B50120FFF71CFF67
:101D900000F0EAF800F02CF84FF6FF7000210090F8
:101DA0004FF4A073F0220846FFF71AFF08BD0000A9
:101DB00070B54FF0C0452A242C800C4C060A2680B2
:101DC000C6B226801044401E020A2280C0B2208083
:101DD0002B202880080A2080C8B22080C818401E06
:101DE000010A2180C0B2208070BD000000000260A6
:101DF00000B54FF0C041CF20088059480022028032
:101E00008122028030220280ED220A806422028038
:101E1000032202801222028081220280E8220A80AC
:101E2000852202801022028078220280CB220A8042
:101E3000392202802C220280002202803422028079
:101E400002220280F7220A8020220280EA220A80EF
:101E5000002202800280B1220A80002202801B221E
:101E60000280B6220A800A220280A2220280C022B8
:101E70000A8035220280C1220A8011220280C522F6
:101E80000A80452202800280C7220A80A2220280A4
:101E9000F2220A800022028026220A800122028089
:101EA000E0220A800F220280262202802422028061
:101EB0000B2202800E22028009220280542202801C
:101EC000A8220280462202800C2202801722028071
:101ED000092202800F220280072202800022028053
:101EE000E1220A8000220280192202801B22028045
:101EF0000422028010220280072202802A2202800D
:101F000047220280392202800322028006220280B8
:101F1000028030220280382202800F220280362284
:101F20000A80C82202802A220A80002202800280BF
:101F30000280EF2202802B220A800022028002808F
:101F4000012202803F2202803A220A80552202802A
:101F5000112008800348FEF7DBFA2920088000BD25
:101F600000000260FCBF020070B50A4C0022022192
:101F70002046FEF782FD084D2846FEF7C9FA0122E9
:101F800002212046FEF779FD2846BDE87040FEF7A5
:101F9000BFBA000000180140FCBF020010B50449A0
:101FA0000448FEF7BDFA0249491E087010BD000042
:101FB0002D0000205007030800B587B01C2168469B
:101FC000FEF7E9F815484FF020411022016014494E
:101FD000416000218160C160C0E904128161C1617A
:101FE00013020162C0E90913C162016341638163A5
:101FF0000F20FF230090CDE90103CDE9030211205A
:10200000CDE90501002269460448FFF7E4FB0548D5
:10201000C16941F48061C16107B000BD4001002089
:10202000040100A0000001402DE9F04F85B000241C
:1020300040480094019402940394816941F0100196
:102040008161816901F010010491816941F004010D
:102050008161816901F004010491816941F04001CD
:102060008161816901F040010491816941F00801B9
:102070008161816901F008010491816941F02001C9
:1020800081618069DFF8B09000F020004FF498750E
:102090000490002229464846FEF7EFFCDFF89CB08A
:1020A0004FF47047012239465846FEF7E6FCDFF848
:1020B00090A04FF48058002241465046FEF7DDFCC8
:1020C000002202211F48FEF7D8FC009503260125B7
:1020D0000396CDE9015469464846FEF7D5FBCDE9A4
:1020E00000750227CDE9024769465846FEF7CCFB4A
:1020F000CDF800800396CDE9015469465046FEF7BD
:10210000C3FBC0208DE8310069460F48FEF7BCFBD9
:1021100030028DE8310069465846FEF7B5FB00975E
:102120000396CDE9015469460648FEF7ADFB05B0BC
:10213000BDE8F08F0010024000080140000C014093
:10214000001401400018014000100140FEE77047F4
:102150000907090E002806DA00F00F0000F1E02060
:1021600080F8141D704700F1E02080F800147047DB
:1021700070470A6842624A688262D1E902231A43C0
:10218000D1E904310B43C16A1A4321F0F70111432D
:10219000C16200207047006800F00300704708B576
:1021A000084414300090006808BD70B50DF1100CA3
:1021B00011439CE87000234319432943426831438B
:1021C00047F6FF639A430A434260002070BD032133
:1021D000016000207047D0F8800070470A68826074
:1021E000D1E901231A43D1E903310B43C1681A43F2
:1021F0006FF30B011143C160002070470968C0F8FC
:1022000080100020704710B586B004463720CDE915
:10221000001040200290002003904FF48060049052
:1022200069462046FFF7DAFF41F28832372120461F
:1022300000F0B6F906B010BD10B504460A4886B0E5
:1022400001432920CDE90010402002900020039096
:102250004FF48060049069462046FFF7BFFF204698
:1022600000F054FA06B010BD0000108010B586B022
:1022700004461020CDE90010402002900020039079
:102280004FF48060049069462046FFF7A7FF41F2B3
:1022900088321021204600F083F906B010BD10B539
:1022A00086B004460620CDE90010402002900020B0
:1022B00003904FF48060049069462046FFF78EFF3C
:1022C00041F288320621204600F06AF906B010BDBE
:1022D00030B585B000240546009401944FF4806029
:1022E0000294CDE9034069462846FFF777FF0B4883
:1022F0004FF4FA510068B0FBF1F041F288314843E5
:10230000401E03D24FF0004005B030BD696B090696
:10231000F6D540F2FF50A8632046F5E748000020BC
:1023200070B585B004464FF4D57000900820402663
:10233000CDE901060025C001CDE9035069462046DC
:10234000FFF74CFF0F484FF4FA510068B0FBF1F073
:1023500041F288314843401E02D24FF000450DE063
:10236000616B11F0450FF6D0606B400702D5A66394
:10237000042503E0606B400600D5A66305B028463F
:1023800070BD00004800002010B586B00446122041
:10239000CDE9001040200290002003904FF48060AF
:1023A000049069462046FFF719FF41F28832122156
:1023B000204600F0F5F806B010BD10B586B0044612
:1023C0001120CDE9001040200290002003904FF42E
:1023D0008060049069462046FFF700FF41F2883292
:1023E0001121204600F0DCF806B010BD10B586B013
:1023F00004460720CDE900204020029000200390F1
:102400004FF48060049069462046FFF7E7FE41F2F2
:1024100088320721204600F0C3F806B010BD10B581
:1024200086B0044600210220CDE90010C020CDE98D
:1024300002014FF48060049069462046FFF7CEFE0B
:10244000204600F03BF906B010BD10B586B004463A
:102450000920CDE90010C0200290002003904FF425
:102460008060049069462046FFF7B8FE204600F0E1
:1024700025F906B010BD10B586B004460021332002
:10248000CDE900104020CDE9020100010490694629
:102490002046FFF7A3FE41F288323321204600F0A8
:1024A0007FF806B010BD10B586B004460D20CDE90A
:1024B000001040200290002003904FF480600490B0
:1024C00069462046FFF78AFE41F288320D212046F8
:1024D00000F066F806B010BD30B585B00C46054674
:1024E00000210320CDE900104020CDE902010001C8
:1024F000049069462846FFF771FE224603212846CC
:1025000000F024F905B030BD10B586B004460021B6
:102510000C20CDE900104020CDE90201000104901B
:1025200069462046FFF75AFE034A0C21204600F078
:1025300037F806B010BD000000E1F50510B586B013
:1025400004461920CDE9001040200290002003909D
:102550004FF48060049069462046FFF73FFE41F249
:1025600088321921204600F01BF806B010BD10B5C6
:1025700086B004461820CDE90010402002900020CB
:1025800003904FF48060049069462046FFF726FED2
:1025900041F288321821204600F002F806B010BD42
:1025A000444B10B51B684FF4FA54B3FBF4F3534398
:1025B0005B1E02D24FF0004010BD426B12F0450F7F
:1025C000F6D0426B520703D504218163084610BD43
:1025D000426BD20702D00121816303E00269D2B2CB
:1025E0008A4201D0012010BD40F2FF5181630021D9
:1025F000FFF7D5FD3049084201D1002010BD002869
:1026000002DA4FF0007010BD410001D5402010BD2E
:10261000810001D5802010BDC10002D54FF480702B
:1026200010BD010102D54FF4007010BD410102D56B
:102630004FF4806010BDC10102D54FF4006010BDA1
:10264000010202D54FF4805010BD410202D54FF473
:10265000005010BD810202D54FF4804010BDC10270
:1026600002D54FF4004010BD410302D54FF40030B5
:1026700010BD810302D54FF4802010BDC10302D5E7
:102680004FF4002010BD010402D54FF4801010BD9E
:10269000410402D54FF4001010BD810402D54FF45F
:1026A000800010BD000702D54FF4000010BD4FF4AC
:1026B000803010BD4800002008E0FFFD12494FF4B3
:1026C000FA520968B1FBF2F141F288325143491ED6
:1026D00002D24FF000407047426B12F0450FF6D027
:1026E000416B490703D50421816308467047416B5C
:1026F000C90703D0012181630846704740F2FF51AA
:102700008163002070470000480000200E494FF40C
:10271000FA520968B1FBF2F141F288325143491E85
:1027200002D24FF000407047426B12F0450FF6D0D6
:10273000416B490703D5042181630846704740F285
:10274000FF51816300207047480000201F4B10B5E7
:102750001B684FF4FA54B3FBF4F341F2883463433B
:102760005B1E02D24FF0004010BD446B14F0450FC9
:10277000F6D0436B5B0703D504218163084610BD87
:10278000436BDB0702D00121816303E00369DBB205
:102790008B4201D0012010BD40F2FF518163002126
:1027A000FFF7FDFC10F4604F04D0410406D54FF450
:1027B000005010BD000C1080002010BD000402D598
:1027C0004FF4805010BD4FF4803010BD4800002001
:1027D0002DE9F04F89B00E460446FEF753F9002567
:1027E0008346009501952F4608212068FFF73EFD9E
:1027F000002834D1B4F8500001042068FFF703FD2D
:1028000000282CD1401E4FF00808CDE902083020E6
:102810004FF00209CDE904090120CDE9067002A9B3
:102820002068FFF7A6FC2068FFF725FE002816D1D8
:10283000EA4640F22A472068416B394212D1416B87
:10284000890204D5FFF7C7FC4AF825006D1CFEF786
:1028500019F9A0EB0B00401CEDD14FF0004009B07E
:10286000BDE8F08F416B090703D5C0F83880082018
:10287000F5E7416B890703D5C0F838900220EEE7F1
:10288000416B890603D5202181630846E7E740F2C2
:10289000FF518163009800BA7060019800BA3060FF
:1028A0000020DCE710B590B004460120ADF83800F8
:1028B0002068FFF770FC002864D0606C032842D0C9
:1028C0002068FFF7ACFD00285AD100212068FFF7EF
:1028D00066FC606704212068FFF761FCA06708219F
:1028E0002068FFF75CFCE0670C212068FFF757FCCD
:1028F000C4F88000606C032825D00EA92068FFF77B
:10290000EBFD00283CD1606C03281CD0BDF83800DA
:10291000206501042068FFF798FD002830D10021D0
:102920002068FFF73CFC606604212068FFF737FC55
:10293000A06608212068FFF732FCE0660C212068C1
:10294000FFF72DFC206704212068FFF728FC000D0D
:10295000E06403A92046FEF7FBFBB4F85000002317
:1029600002042068FFF742FD002809D104F110009D
:1029700007C88DE8070094E80F00FFF716FC002059
:1029800010B010BD4FF08060FAE72DE9F843002544
:10299000044600950068FFF79BFC00281AD12068C8
:1029A000FFF7BEFC4FF080784FF6FF76D8B14FF0BE
:1029B0008057A5640098411C0091B0421AD00021B4
:1029C0002068FFF720FC20B900212068FFF734FCC5
:1029D00010B13846BDE8F88300212068FFF7DFFB1F
:1029E000C00FE7D01FE00127A7640098411C0091A9
:1029F000B04201D14046EDE700212068FFF703FC1B
:102A00000028E7D14FF080412068FFF715FC00282F
:102A1000E0D100212068FFF7C2FBC10FE5D04000E4
:102A200001D5676400E065640020D3E71CB5044667
:102A300000200090019000212068FFF7B0FB80018A
:102A400002D54FF400601CBD69462046FFF7C0FE6A
:102A50000028F8D10198C0030CD5B4F85000010447
:102A60002068FFF7D0FB0028EDD100212068FFF798
:102A700016FC1CBD4FF080601CBD1CB50446002038
:102A80000090019000212068FFF789FB800102D5AA
:102A90004FF400601CBD69462046FFF799FE0028F0
:102AA000F8D1019840030CD5B4F850000104206817
:102AB000FFF7A9FB0028EDD102212068FFF7EFFB0B
:102AC0001CBD4FF080601CBD10B5064C012020706D
:102AD000FDF7E2FC18B9207820F001002070207882
:102AE00010BD00005400002010B5124888B01446F4
:102AF0000078C00702D0032008B010BDB9B1012989
:102B000005D0022908D003290CD00420F4E7684638
:102B1000FDF7B0FC069809E06846FDF7ABFC0798A6
:102B2000208004E06846FDF7A5FC0798206000209F
:102B3000E2E70000540000202DE9F0411E46174650
:102B400008460125094C0A4B32463946FDF7BEFCC2
:102B500028B109E0641E02D20120BDE8F081FDF732
:102B60008FFC0028F6D100252846F6E7A086010054
:102B700000E1F50510B5064C01202070FDF780FC42
:102B800018B9207820F001002070207810BD0000D6
:102B9000540000202DE9F0411E4617460846012545
:102BA000094C0A4B32463946FDF7A0FC28B109E032
:102BB000641E02D20120BDE8F081FDF761FC00280F
:102BC000F6D100252846F6E7A086010000E1F505CC
:102BD0007047FDF75DBF30B58FB028216846FDF71F
:102BE000DAFA14210AA8FDF7D6FA01210804CDE982
:102BF00000100024029402250491CDE907504FF4FF
:102C0000E01009906846FEF7E5F80F20CDE90A05C7
:102C10006802CDE90C4002210AA80E94FDF7CEFF10
:102C20000FB030BD0D48016841F0010101604168FD
:102C30000B4A1140416001680A4A11400160016875
:102C400021F480210160416821F4FE0141604FF4CC
:102C50001F0181600449C0030860704700100240F2
:102C60000000FFF8FFFFF6FE08ED00E010B5406A37
:102C70000021C185C184FEF7EFFD10BD0168CA685F
:102C800022F49072CA6001684A6922F001024A6126
:102C9000202180F83A10704710B590F83A10222998
:102CA00001D0022010BD8168B1F5805F11D00169AB
:102CB000002901681FD0496801F07F03816A4A1C1E
:102CC00082620B70C18D491E0904090CC18518D0A0
:102CD0002BE00269816A002A0268526805D0D2B2EC
:102CE0000A80816A491C8162ECE7C2F308020A800B
:102CF000816A891CF7E74A68816A4B1C83620A7003
:102D0000E0E70168CA6822F02002CA600168CA6868
:102D100022F48072CA6001684A6922F001024A61A5
:102D2000202180F83A10FEF7EFFE002010BD0000D1
:102D30002DE9F041044600680169E26821F4405140
:102D4000114301612169A068084361690843216852
:102D5000CA6841F20C639A430243CA602068416921
:102D6000A26921F44071114341614C4920686425F6
:102D7000322688423CD1FDF7E7FF00EBC00101EBB2
:102D8000001061688900B0FBF1F7FDF7DDFF00EB93
:102D9000C00101EB00106168B0468900B0FBF1F0A2
:102DA000B0FBF5F06FF01801484307EB800106EB2C
:102DB0000110B0FBF5F000F0F006FDF7C5FF00EBE9
:102DC000C00101EB001061688900B0FBF1F0B0FBBD
:102DD000F5F006EB0016FDF7B7FF00EBC00101EBC5
:102DE000001061688900B0FBF1F7FDF7ADFF3BE033
:102DF000FDF79AFF00EBC00101EB0010616889004C
:102E0000B0FBF1F7FDF790FF00EBC00101EB001004
:102E10006168B0468900B0FBF1F0B0FBF5F06FF0EF
:102E20001801484307EB800106EB0110B0FBF5F0F9
:102E300000F0F006FDF778FF00EBC00101EB001099
:102E400061688900B0FBF1F0B0FBF5F006EB00160D
:102E5000FDF76AFF00EBC00101EB0010616889001B
:102E6000B0FBF1F7FDF760FF00EBC00101EB0010D4
:102E700061688900B0FBF1F0B0FBF5F06FF018016C
:102E8000484307EB800108EB0110B0FBF5F0216827
:102E900000F00F0030448860BDE8F0810038014048
:102EA00090F83910212901D0022070478168B1F5CE
:102EB000805F016A0BD04A1C026202680978516087
:102EC000C18C491E0904090CC1840ED017E0098881
:102ED0000268C1F30801516001690029016A02D04A
:102EE000491C0162ECE7891CFBE70168CA6822F013
:102EF0008002CA600068C16841F04001C1600020E2
:102F000070472DE9F041984617460E460446069D47
:102F10001DE0681C1BD02DB1FDF7B4FDA0EB08002F
:102F2000A84214D92068C16821F4D071C16020681A
:102F3000416921F001014161202084F8390084F8C1
:102F40003A00002084F838000320BDE8F0812068B2
:102F5000006836EA000004D00020B842D9D0002032
:102F6000F3E70120F9E700000148FEF777BC000015
:102F700000010020FEE700000FB4084B10B504A9C3
:102F800002AA039800F020F8044602A9002000F0ED
:102F90004CFA204610BC5DF814FB00002B340008EE
:102FA000004870476400002002E008C8121F08C1F2
:102FB000002AFAD170477047002001E001C1121FBA
:102FC000002AFBD1704700002DE9FF4F8DB00F465E
:102FD0000546002606E025280BD0DDE90F129047B4
:102FE0006D1C761C28780028F5D111B03046BDE85C
:102FF000F08F0024A246A1460122EC4900E00443E0
:1030000015F8013F203B02FA03F00842F7D1287877
:103010002A2810D06FF02F022878A0F1300109295A
:1030200014D80AEB8A0102EB410144F0020400EBE0
:10303000010A6D1CF0E701CF5FEA000A03D544F4F2
:103040000054CAF1000A44F002046D1C28782E28AE
:1030500017D115F8010F44F004042A280ED06FF0A0
:103060002F022878A0F1300109290AD809EB89013B
:1030700002EB410100EB01096D1CF2E757F8049BDC
:103080006D1C28786C280FD006DC4C2817D06828D7
:103090000DD06A2814D104E0742810D07A280FD1FA
:1030A0000DE044F400140AE044F4801401E044F418
:1030B00040146978814202D104F580146D1C6D1CA6
:1030C0002A786E2A1FD00CDC632A31D004DC002A57
:1030D0008BD0582A11D1A3E0642A68D0692A0CD178
:1030E00065E0732A2ED004DC6F2A73D0702A04D1D5
:1030F0009BE0752A6FD0782A6ED01046DDE90F125A
:103100009047761C50E1C4F30250022806D00328F1
:1031100009D0042801CF09D0066045E101CFF1179D
:10312000C0E9006140E101CF06803DE106703BE16E
:1031300017F8040B8DF8000000208DF80100EB4615
:10314000012003E057F804BB4FF0FF3061074FF058
:10315000000102D40DE008F10101884649450FDA6B
:103160008045F8DB1BF808100029F4D108E008F1CD
:10317000010188468142FADB1BF808100029F6D1CC
:10318000DDE90F23AAEB08008146214600F036F95D
:10319000304400EB080604E0DDE90F121BF8010BD8
:1031A0009047B8F10108F7D221464846F7E00A21D6
:1031B000C4F302534FF0000B0891022B04D001CF4F
:1031C000C117032B09D00AE0FF1D27F00707F7E816
:1031D000020108E032E01FE020E000B2C117042B3A
:1031E00001D140B2C117031E71F1000307DA4FF09D
:1031F000000CD0EB0C006CEB01012D2302E0230549
:1032000004D52B238DF82430012303E0E30701D0FC
:103210002023F7E7984658E00A2110E010210EE03D
:1032200010204FF0000B08900CE010214FF0000B25
:1032300044F004044FF00809089103E008214FF01E
:10324000000B0891C4F30253022B04D001CF0021DC
:10325000032B06D006E0FF1D27F00707F7E8020161
:1032600003E080B2042B00D1C0B24FF00008230766
:103270002BD5702A07D0DDF820C08CF0100C5CEA4A
:103280000B0C05D00EE040238DF82430012308E01C
:1032900050EA010306D030238DF824308DF8252024
:1032A00002239846DDF820C08CF0080C5CEA0B0C79
:1032B0000BD150EA010301D1630706D530238DF805
:1032C00024304FF00108A9F10109582A04D038A28E
:1032D0000B9208AA0A920BE03AA2F9E75B46089A19
:1032E000FCF7DBFF0B9B9B5C0A9A521E0A92137041
:1032F00050EA0102F2D10A98ADEB000000F1200B78
:10330000600702D524F4803401E04FF00109D9456B
:1033100002DDA9EB0B0000E0002000EB0B014144B3
:103320000890AAEB010AE00306D4DDE90F23214649
:10333000504600F063F806444FF0000908E009A980
:1033400011F80900DDE90F12904709F10109761C17
:10335000C145F4DBE0030CD5DDE90F2321465046DF
:1033600000F04CF8064404E0DDE90F1230209047ED
:10337000761C0899481E08900029F5DC08E00A9898
:103380000A990078491C0A91DDE90F129047761CD2
:10339000BBF10001ABF1010BF1DC21465046DDE948
:1033A0000F2300F019F806446D1C1BE609280100E4
:1033B00030313233343536373839616263646566AB
:1033C000000000003031323334353637383941426D
:1033D00043444546000000002DE9F0410446002525
:1033E0001E461746880404D405E039462020B0471D
:1033F0006D1C641EF9D52846BDE8F0812DE9F04129
:10340000044600251E469046C80301D5302700E03B
:103410002027880404D505E041463846B0476D1C96
:10342000641EF9D52846BDE8F0810A68531C0B607C
:103430001070704710B50446002084F80402401E46
:10344000C4F82C02204601F095FC08B1032010BD01
:10345000B4F8FE01A0F52A41553901D0022010BD73
:1034600094F83600B4F8371040EA01210848B0EB70
:10347000012F08D094F85210B4F8532041EA0221E9
:10348000B0EB012F01D1002010BD012010BD0000C4
:103490000046415400E0401C02780AB18A42FAD149
:1034A000D0B27047F0B50022184B144602EB42062A
:1034B00053F8265085B1D0F80072BD420DD103EB10
:1034C0008605D0F808626F68B74206D12D89B0F83A
:1034D0000662B54204D000E00124521C022AE5D362
:1034E000022A01D079B904E05CB9022909D012207E
:1034F000F0BD02EB420003EB80004089B0F5807F15
:1035000001D00020F0BD1020F0BD0000A008002078
:1035100030B50021064A0C4601EB410352F8235016
:10352000854201D142F82340491C0229F4D330BD21
:10353000A0080020D0F82422D0F80002490A90F810
:103540000202B1FBF0F0121D02CA19B1884203D386
:10355000401AF8E700207047116808447047D0F817
:103560001422891E921E8A4201D800207047D0F88A
:10357000282290F8020201FB002070472DE9F0415B
:103580000F00054606D001F025F802280BD20120D5
:10359000BDE8F081D5F80C621EB1D5F81402B04236
:1035A00008D8012606E0411CF2D0D5F81412814259
:1035B000EED83E463446D5F81402641CA04202D828
:1035C0000224022E0AD32146284601F003F838B11E
:1035D000411CDDD00128DBD0B442ECD10020D7E77C
:1035E0006FF070422146284601F0DFFB30B957B139
:1035F00022463946284601F0D8FB20B1012812D0D6
:1036000001242046C4E7C5F80C42D5F81002411C3D
:10361000F7D0401EC5F8100295F8050240F00100F1
:1036200085F80502EDE74FF0FF34EAE72DE9F84FA2
:10363000884682460F6800E07F1C38782F28FBD030
:103640005C28F9D00024DAF820622546785D6D1CEC
:10365000202827D32F2825D05C2823D0FF2C42D226
:10366000A0F181017D290BD8795D6D1C01EB002053
:10367000A1F1400280B23F2A02D380397F2932D2A1
:10368000012100F097FD5FEA00092CD0B9F1800F0D
:1036900004D2014671A0FFF7FDFE20BB26F814906E
:1036A000641CD3E77A19C8F80020202801D2042529
:1036B00017E0002515E000BF06EB440030F8020CCF
:1036C00020280DD02E280BD06CB1002026F8140035
:1036D0000B222021DAF8180201F045FB002706E052
:1036E000641E002CE8D10620BDE8F88F7F1C36F858
:1036F00017002028FAD02E28F8D01FB145F0030576
:1037000000E0641E2CB106EB440030F8020C2E28B9
:10371000F7D1002081464FF0080B009036F81700D3
:1037200007F101075FEA000824D0B8F1200F04D0A8
:10373000B8F12E0F04D1A74202D045F00305EDE702
:103740000099594501D2A7421AD1BBF10B0F0FD0F6
:10375000A74201D045F003050CD84FF008000090B7
:103760004FEA896027464FF00B0B4FEA1069D5E707
:1037700045F00305DAF818020178E52949D04AE056
:103780004046B8F1800F07D300F03EFD002100F065
:1037900011FD804645F00205B8F1FF0F13D90099DD
:1037A000ABF10100814204D345F00305CDF800B030
:1037B000B4E7DAF8182200984FEA1821115400985B
:1037C000401C00901CE0B8F1000F04D0014626A078
:1037D000FFF760FE20B14FF05F0845F003050FE0F2
:1037E000A8F14100192802D849F0020908E0A8F11F
:1037F0006100192804D8413049F001091FFA80F806
:10380000DAF81822009902F801800098401C009014
:1038100084E705210170BBF1080F03D14FEA8960ED
:103820004FEA1069C9F38100032803D06FEA090148
:10383000890701D145F00205A90709D409F0030160
:10384000012901D145F01005012801D145F00805F5
:10385000DAF81802C572002046E70000222A3A3C36
:103860003E3F7C7F000000002B2C3B3D5B5D000059
:103870002DE9FC5F0546002100F014FA00286ED106
:10388000FF204FF6FF7A00908146A5F824A200BFE2
:10389000D5F81012D5F8000201F06CFA06000ED12E
:1038A000D5F81442207848B1E17AE52801F03F01CB
:1038B00070D00A0704D50F296CD107E0042674E004
:1038C0000F2903D0B9F1000F4DD052E0D5F82012E6
:1038D00091B3420608D5627B009220F04000B5F813
:1038E00006228146A5F82422484534D1627B0098FF
:1038F000824230D101912078A04620F04000401E45
:1039000000EB80010027DFF8A8B001EBC00601241E
:103910001BF8071001EB0800008874B100F074FC7C
:103920000446FF2E17D2019830F81600761C00F0DE
:103930006BFCA0420FD102E030E050450BD17F1C60
:103940000D2FE5D398F80000400609D544B1019841
:1039500030F8160020B1FF2000F0FF091EE025E03E
:10396000A9F10100F8E7204601F026FC0099884201
:103970001BD0D5F81802C17AC9070BD10A2101E082
:10398000491E06D314F8012B10F8013BD21AF7D0C8
:1039900000E052B14FF0FF09A5F824A2002128460B
:1039A00000F008F806003FF473AF3046BDE8FC9F16
:1039B0004C5A00082DE9F041B0F806620446761C26
:1039C00030040F46000C37D0D4F8100298B33107FA
:1039D00073D1401CC4F81002D4F80C12D4F80002C1
:1039E00031B190F80222521E12EA161F05D064E08F
:1039F000B0F80802B0421FD95FE000F0EBFD0546C9
:103A000001281ED9681C3AD0D4F80002D0F814124C
:103A1000A94249D87FB1D4F80C12FFF7AFFD0500D9
:103A20000DD0012D0DD0681C29D0D4F8000201F072
:103A3000D0FB20BB07E0FFE70420BDE8F0810720B2
:103A4000FBE70220F9E74FF400720021D4F80002EE
:103A500001F089F92946D4F80002FFF780FDD4F877
:103A6000001200274FF00108C1F82C0211E000BF3E
:103A700080F80482D4F8000201F0ABFB08B1012009
:103A8000DBE7D4F80002D0F82C12491C7F1CC0F8E8
:103A90002C12D4F8000290F80212B942E8D8D0F8FB
:103AA0002C12C91BC0F82C12C4F80C522946D4F8A9
:103AB0000002FFF754FDC4F81002A4F80662D4F81F
:103AC000000206F00F0100EB4110C4F814020020C0
:103AD000B3E700002DE9FF5FD0F818720446D0F874
:103AE00020620C223946684601F034F99DF80B003B
:103AF000C0071AD00020F8720125C4F820022B4616
:103B000032466946384600F01FFD2046FFF7B0FEFA
:103B100010B96D1C642DF2D3642D0CD004280BD188
:103B20009DF80B00F872C4F820629DF80B00800726
:103B30000FD5002004E0072004B0BDE8F09F401C32
:103B400036F810100029FAD10D211930B0FBF1F62A
:103B500000E001260021204600F0A4F8A0B90027CB
:103B6000D4F81012D4F8000201F004F960B9D4F8C6
:103B700014020078E5280AD048B100270121204628
:103B8000FFF718FF0028EBD0042812D012E07F1CAA
:103B90003046B742F2D1461E5FEA060A5FD0B4F85B
:103BA00006122046A1EB0A0100F07CF8050003D0C4
:103BB00074E00720054671E0D4F8180201F0FCFA21
:103BC000CDF80C00D4F81012D4F8000201F0D2F8AD
:103BD000050063D1D4F81412D4F8209203984873E6
:103BE0000F20C8720020087388760AF0FF0BC87691
:103BF000ABF1010000EB800202EBC00500234FF6A1
:103C0000FF7E274E4A1C01E0604503D039F81500BD
:103C1000F4466D1CF75CC85516F80380070A08F8CF
:103C2000027000B960465B1C0D2BEDD3704502D0CD
:103C300039F8150008B94BF0400B81F800B0D4F802
:103C40000012012081F8040200212046FFF7B2FE95
:103C5000050023D1AAF101005FEA000AB2D1D4F82D
:103C60001012D4F8000201F085F8050016D1D4F83E
:103C700014022022002104F5007401F074F8D4E944
:103C800005010B2201F066F8A0696169C07A00F0B5
:103C9000180008732168012081F8040228464BE7C8
:103CA0004C5A000870B5A0F80612D0F808320D463C
:103CB0000446012B40D0D4F80002D0F814129942E7
:103CC0003AD933B990F80012032906D1D0F824323A
:103CD0001BB190F80202060114E0B0F80812A942E4
:103CE0002AD9D0F8240214E000F074FC0346401CEA
:103CF00020D0022B20D3D4F80002D0F8140298422E
:103D00001AD9AD1BD4F80002B5421946ECD2FFF720
:103D100026FCC4F80C3278B100EB1510C4F8100280
:103D2000D4F8000205F00F0100EB4110C4F81402B2
:103D3000002070BD012070BD022070BD084910B583
:103D40000B5C002253B901220A540A1801EB8000CF
:103D5000127A40680168104688470246104610BD36
:103D6000B808002030B4054D2C1805EB8000247AEB
:103D7000406885682046AC4630BC6047B8080020E3
:103D8000044A111802EB8000097A4068426808462C
:103D900010470000B808002030B4054D2C1805EB82
:103DA0008000247A4068C5682046AC4630BC604735
:103DB000B80800202DE9FC4100259046074604463E
:103DC0004E1E11E001AB01226946404600F02CF97D
:103DD000019801280AD19DF800000D2804D06D1C1F
:103DE00004F8010B0A2801D0B542EBDB002020705B
:103DF00015B13846BDE8FC810020FBE72DE9F7410D
:103E000081B0904602980090684600F0E1FC040002
:103E100003D50B2004B0BDE8F0810E4E002756F804
:103E2000245025B12846FFF773FB85F800720198EE
:103E3000002801D080F8007246F8240002D0B8F1C2
:103E4000010F01D00020E5E7002202A901A800F03F
:103E5000EDF9DFE7500000202DE9F74FADF50E7DBD
:103E600006000ED04FF0000902F01F0727F00102F4
:103E70008FA980A8C6F8009200F0D8F9040005D0F8
:103E8000C9E009200DF5117DBDE8F08F4FF40070F9
:103E900000F0B6F95FEA00080BD08AA88690CDF84A
:103EA000208268468F9900F0EDFA859D040002D0CB
:103EB0000DE01120E6E71DB1780803D0012102E0F2
:103EC000062404E000216846FFF7ECFA044617F0E8
:103ED0001C0F5FD04FF0010BD4B1042C13D1002084
:103EE000504902E0401C022805D200EB400251F884
:103EF0002220002AF6D1022804D06846FFF7EAFD06
:103F0000044600E01224859D47F0080754B146E0BE
:103F1000E87A10F0110F01D0072440E0780701D5AE
:103F200008243CE0380749D500F0B5FBA873010A26
:103F3000E973010C2974000E687485F80B9085F8FC
:103F40001C9085F81D9085F81E9085F81F902946D5
:103F5000809800F0ABFC82460021284601F024F94D
:103F60008099BAF1000F81F804B225D080985146AB
:103F7000D0F82CB200F095FF040010D18099AAF17E
:103F80000100C1F80C025946809800F0F3FE0400CD
:103F900010D004E01CB9E87AC10605D504244046D7
:103FA00000F030F9ECB136E0B90703D5C00701D015
:103FB000072433E0380701D547F020078098D0F870
:103FC0002C02C6E98705780801D0012100E0002114
:103FD000684600F01BFCC6F82802F0B1404600F02D
:103FE00011F986F8067286F807924F46294606F5BB
:103FF0000076809800F05AFC3061287FD5F81D10BB
:1040000040EA0120C6E90270B761776280983060AB
:10401000B0F80602B080204634E70224404600F0A3
:10402000F1F8F8E7A00800202DE9F84F88460021B4
:10403000994615460446196001F0A8F9002812D1E6
:1040400094F8070200280ED194F80602C00709D0A0
:10405000D4E98201081A01274FF0020A854200D9EB
:104060000546A2E00720BDE8F88F00BFD4F808128B
:10407000C8057CD1D4F8000290F80222521E02EA50
:10408000512212F0FF0614D131B1D4F8242232B1FA
:104090002046FFF74FFA06E0D4F8100203E0D4F808
:1040A000141200F097FA022823D3411C5BD0C4F805
:1040B0001402D4F81412D4F80002FFF750FAC0B179
:1040C00030440090680A5FEA000B2AD0D4F800124E
:1040D00006EB0B0291F80202824201D9A0EB060B1B
:1040E00091F801025B464146009AFFF73BFED0BBC8
:1040F00003E084F807A20220B5E794F80602400620
:104100000CD5D4F818120098081A584506D208EBB6
:1041100040204FF40072214600F01CFE4FEA4B266F
:1041200037E0D4F818220098824221D094F8060291
:1041300040060ED5D4F800020123214690F8010272
:10414000FFF72AFE78B994F8060220F0400084F8C0
:104150000602D4F800020123214690F80102009AD9
:10416000FFF700FE20B184F8077201207BE702E030
:104170000098C4F81802B4F80802C0F30800C0F5AB
:104180000076AE4200D92E4601193246404600F074
:10419000E1FDD4F80802B0443044C4F80802D9F86C
:1041A00000008119AD1BC9F80010002D7FF45EAF2F
:1041B000002058E770B580281BD345F2205309B181
:1041C0000D4D00E00D4D002110245A1A02EBD27261
:1041D00001EB620235F82260864206D001D2114618
:1041E00000E01346641EF0D104E01CB105EB820030
:1041F000408870BD002070BD0AAF0108865A0008D3
:1042000000F072BD00F078B90021064B00E0491CB7
:1042100033F81120002A04D08242F8D1024830F845
:10422000110070478E0303086E0503082DE9FF4750
:104230004FF000090746C0F800901646084600F007
:10424000C7FA050003D50B2004B0BDE8F0878A4803
:1042500050F82540A4B13C6094F8000228B194F8CD
:104260000102FFF78DFDC1070CD084F80092E8B27F
:1042700084F80102FFF762FDC10708D00320E3E7DD
:104280000C20E1E70EB1400704D40020DCE71EB1AA
:10429000400701D50A20D7E7002529462046FFF729
:1042A000C9F8012823D100204FEA0D0704EB0011C3
:1042B00091F8C22101F5DF712AB10A7AD1F809100B
:1042C00042EA012100E0002147F82010401C0428A8
:1042D000ECD3002657F826502DB129462046FFF78B
:1042E000A9F808B909E00220761C042EF2D30328AD
:1042F00001D0E0BB01E00120A6E7B4F80B00B0F567
:10430000007F60D1E28A2AB994F82400D4F82510FD
:1043100040EA0122C4F81822217C84F80312012902
:1043200001D002294FD1607B514384F80202F0B1E1
:10433000431E184247D1B4F81130A4F808321E07C2
:1043400041D1B4F813602EB994F82060D4F82170EC
:1043500046EA0726B4F80EC0BCF1000F33D00CEBD0
:10436000010707EB1317BE422DD3F61B00E02AE02E
:10437000B6FBF0F038B3012640F6F678404500D39E
:1043800002264FF6F678404500D30326801C2F44C2
:10439000C4F82872AC44C4F81402C4E9875C032E44
:1043A00013D083B16144C4F82412022E19D000F056
:1043B000010100EB400001EB500000BF00F2FF10D4
:1043C000B2EB502F0FD20D203EE7002BFBD194F81B
:1043D0002C10D4F82D30800041EA0321C4F82412B7
:1043E000ECE74000EAE74FF0FF30C4F81002C4F8F1
:1043F0000C02802084F80502032E30D1208E012883
:104400002DD12046691C00F0B5FC40BB84F8059214
:10441000B4F8FE01A0F52A41553920D12078D4F80E
:10442000011040EA01201549884218D194F8E401AE
:10443000D4F8E51140EA0120114988420FD194F8DF
:10444000E801D4F8E91140EA0120C4F8100294F818
:10445000EC01D4F8ED1140EA0120C4F80C02064941
:1044600084F80062091F0888401C0880A4F806022E
:104470002046FFF74DF808E75000002052526141F6
:104480007272416173B50446019801782F2901D0F9
:104490005C2901D1401C01900025C4F80852019804
:1044A0000078202806D200212046FFF7FBFBC4F845
:1044B00014527CBD01A92046FFF7B8F80028F8D1B6
:1044C0002046FFF7D5F9D4F81812C97A28B1042884
:1044D000EFD14907EDD405207CBD4907FCD4D4F8C1
:1044E0001412C87AC006F6D5D4F8000200F0DEF93E
:1044F000C4F80802DEE7000010B5002821D0114BF7
:104500000022001F196803E0814203D80A46496867
:104510000029F9D152B11368841A9C4204D1006871
:1045200018441060104602E0506000E0186039B195
:1045300002680B1A934203D10B681A44026049685F
:10454000416010BD5C0000207CB516461C46054647
:104550000B2200F0FFFB052C11D91D4A0CE00021B5
:10456000B61C2346044663F35F044008E30300D50A
:104570005440491C1029F4D330880028EFD107217A
:104580004FEA0D0304F00F003030392800D9C01D68
:104590005854491E2409F5D17E20002258544C1E3F
:1045A00006E081387D2802D8A24206D0521C521C57
:1045B0008A4202D2A85C2028F3D1082902D2585C92
:1045C000491C00E02020A854521C082AF5D37CBDC9
:1045D000211001002DE9F0410D46044602290DD3BA
:1045E000D4F81402A84209D994F800024FF0FF361B
:1045F000012807D002282AD0032836D001263046C9
:10460000BDE8F081D4F8200205EB550700EB5721F7
:10461000204600F0AFFB0028F1D1C7F308007F1C53
:1046200014F80080D4F8200200EB5721204600F057
:10463000A1FB0028E3D1C7F30800215C48EA012070
:10464000E90701D00609DAE7C0F30B06D7E7D4F88B
:10465000200200EB1521204600F08CFB0028CED173
:10466000E8B204EB40000688C9E7D4F8200200EB6A
:10467000D511204600F07EFB0028C0D140F2FF108B
:1046800000EA850020440178D0F8010041EA0020CA
:1046900020F07046B3E70020704700002DE9F0419C
:1046A0004A4E00244FF48057224639463046FCF7E4
:1046B000E4F900F02DFC050014D000BF00F028FC48
:1046C0000028FBD1012D06D0022D06D0032D06D0E7
:1046D000042D06D006E0312404E0322402E0332425
:1046E00000E04124012239463046FCF7C6F94FF478
:1046F0000057002239463046FCF7BFF900F008FCAD
:10470000050013D000F004FC0028FBD1012D06D0D9
:10471000022D06D0032D06D0042D06D006E0342449
:1047200004E0352402E0362400E042240122394628
:104730003046FCF7A2F94FF4804700223946304654
:10474000FCF79BF900F0E4FB050013D000F0E0FB60
:104750000028FBD1012D06D0022D06D0032D06D056
:10476000042D06D006E0372404E0382402E0392482
:1047700000E04324012239463046FCF77EF94FF42D
:104780000047002239463046FCF777F900F0C0FBBD
:10479000050013D000F0BCFB0028FBD1012D06D092
:1047A000022D06D0032D06D0042D06D006E02A24C3
:1047B00004E0302402E0232400E0442401223946AE
:1047C0003046FCF75AF92046BDE8F081000C014064
:1047D00010B504464FF0FF302268002A13D011466E
:1047E00000E0491C0B78202B0ED33A2BF9D112F89C
:1047F000013B303B0A2B06D28A4204D1002B02D166
:10480000491C1846216010BD002010BDF0B50346BC
:10481000254AD3F80042002000EB400552F82560FD
:10482000A6420BD102EB8505D3F808626F68B74248
:1048300004D12D89B3F80662B54202D0401C02288B
:10484000EAD302281AD1002002E0401C022805D237
:1048500000EB400552F82550002DF6D1022815D066
:1048600000EB400542F8254002EB8504D3F80862CE
:104870006660B3F80632238100236381002900EBD0
:10488000400102EB8101498902D019B10020F0BD3D
:10489000491C01E04FF4807100EB400302EB8302FE
:1048A000401C5181F0BD0000A00800200246488B4A
:1048B00092F80022032A02D1898A40EA0140704717
:1048C000BCB0FCF7EDF8FEF786F9FDF7ADFBFDF7A0
:1048D00073FBD748D549002601604FF41651C0E953
:1048E00001160C21C660C0E904618661C661FDF74E
:1048F0003DF8D149CF4808600846FBF7C1FECC48D7
:10490000CE498438C0E9001686604FF48041C66005
:10491000C0E9046104218161FDF740FBFDF734FA31
:1049200008224FF490742346114610460096FDF776
:10493000ADF9E8222346082110460096FDF7A6F9B6
:104940000823E822194618460096FDF79FF92346EA
:10495000E822194608200096FDF798F92423E8225A
:10496000194608200096FDF791F94023E8221946E0
:1049700008200096FDF78AF9E8231A461946082010
:104980000096FDF783F9AEA2F0211020FDF7CEF9D5
:10499000A74800240421AE3000F06CFBA44F002592
:1049A00017F1AE0705EB451000EB8000384400F12D
:1049B0008A0200F18101CDE9001200F19303123A5D
:1049C0001D3900F0E7FA6D1C042DEBDBDFF860B257
:1049D000DFF864920BF1840BB046BA46A9F11C09CA
:1049E0009DA22C211020FDF7A1F9CDF87080CDF803
:1049F0007480CDF87880D9F80C00574600EB401051
:104A000000EB800038444D4697A16430FBF7FFFB74
:104A100090B1022C2AD0E86800F0CEFC70B1022CD4
:104A200024D0E86800F0C8FC012809D04CB1012C62
:104A300009D0022C1AD00AE00024ECE70124F0E7A8
:104A400000248BA100E08DA11CA8FBF7EEFB1CAAA3
:104A50002C217E20FDF76AF98BA248211020FDF75A
:104A600065F9A9466426ED68BA4615E089A1EBE729
:104A700005EB451000EB800000EB0A0707F181020F
:104A8000B1B21020FDF752F907F16402B1B264200F
:104A9000FDF74CF96D1C1436042DE9DB66494FF423
:104AA0007A73082208396248FDF72FF86420FBF773
:104AB000A5FE5F494FF461730C2284315C48FCF71A
:104AC000C7FF00F0B7FB642103A8FBF764FB642178
:104AD0001FA8FBF760FB08265D4671A1AA5D1FA811
:104AE000FEF74AFA1FA903A8FBF760FB761C0C2E01
:104AF000F3DB6CA103A8FBF78AFB48B3002C6BD057
:104B0000D9F80C0000EB401000EB8001514403A8E1
:104B10009331FBF77CFB00286AD04FF4967663A2B2
:104B200031463220FDF702F9012217023946624868
:104B3000FBF7A3FF3046FBF761FE002239465E48D3
:104B4000FBF79BFF5DA24FF496713220FDF7EEF864
:104B5000002046462E54401C0C28FBDB4FF400512D
:104B60005A48FBF785FF00283FF43AAF58A24FF4AC
:104B700088711020FDF7DAF83896399638A83A96F9
:104B800000F0A8FA8CB3D9F80C0000EB401000EB51
:104B90008001514438A87831FBF739FB38B34FF422
:104BA000967542A229463220FDF7C0F80122424FF5
:104BB000160231463846FBF760FF2846FBF71EFE1B
:104BC000002231463846FBF758FF3CA24FF496715D
:104BD0003220FDF7ABF803E740A24FF49671322084
:104BE000FDF7A4F800F09EFBACE70BE000E012E05C
:104BF0003AA24FF496713220FDF798F800F092FB3C
:104C000002249FE735A24FF496713220FDF78EF80B
:104C100000F088FBD9E731A24FF496713220FDF7FE
:104C200085F800F07FFB0224CFE700000038014048
:104C300000010020003002402400002000800140DC
:104C40005072657373205B4B325D20746F20696E08
:104C50007075742053494400526F6F6D2053746116
:104C60007475733A200000005B4F50454E5D0000A4
:104C70004F50454E20202020000000005245534553
:104C8000525645440000000054696D6520536C6F16
:104C9000743A200054414B454E2020200000000073
:104CA0002578000030303030000000005B494E565F
:104CB000414C49445D0000000008014020202020B4
:104CC0002020202020202020202000000010014053
:104CD0002D2D2D2D2D2D2D2D000000005B554E4C22
:104CE0004F434B5D00000000F0B50B30154D20F038
:104CF00007010024144A0FE003688B420BD38B4258
:104D000005D95E1A43184768C3E9006700E04368A5
:104D1000136002C004E0021D10680028ECD1204698
:104D2000002802D1286808B10020F0BD064A0748D3
:104D30001060074A121A22F00702C0E9002401207D
:104D40002860D7E7600000205C000020CC0800202D
:104D5000C810002004E000BF11F8013B00F8013B3F
:104D6000521EF9D27047C9B201E000F8011B521E71
:104D7000FBD2704770B50546D0F82C020C460026D1
:104D8000A04210D0284600F024FA06000BD195F876
:104D90000102012322462946FEF7E4FF08B1741EF2
:104DA0000126C5F82C42304670BD2DE9F047174664
:104DB0000D460446022903D3D4F81402A84202D8AF
:104DC0000220BDE8F08794F8001207F0FF084FF0CA
:104DD0000109012920D0022950D00329F0D1D4F8AB
:104DE000200200EBD5112046FFF7C4FF0028E8D1D0
:104DF00040F2FF1101EA85010A194FF07043D2F821
:104E0000011003EA0121394311700B0A53700B0C96
:104E10009370090ED17041E0D4F8200205EB5506DD
:104E200000EB56212046FFF7A5FF0028C9D1C6F3A5
:104E30000800761C2044E90703D0017868F31F11AD
:104E400000E03946017084F80492D4F8200200EBA7
:104E500056212046FFF78EFF0028B2D1C6F3080185
:104E60002144EA0702D0C7F3071205E00A78C7F326
:104E7000032302F0F0021A430A700FE0D4F8200274
:104E800000EB15212046FFF775FF002899D1E9B204
:104E900004EB41013A0A81F800804A7084F80492D8
:104EA0008FE72DE9F0410F460646022917D3D6F8C1
:104EB0001402B84213D9002523E039463046FFF7E3
:104EC00089FB040021D0012C09D0601C09D00022EC
:104ED00039463046FFF769FF050016D103E0022589
:104EE00013E0012511E0D6F81002411C08D0401C47
:104EF000C6F8100296F8050240F0010086F8050297
:104F00002746D6F81402B842D7D82846BDE8F08123
:104F100070B51D4D40212846FBF7AAFD1B4CC00073
:104F2000802120702846FBF7A3FD217841EA80000C
:104F3000A915174D20702846FBF79AFD217841EA04
:104F40004000207069152846FBF792FD2178084340
:104F500020700F280DD00A20FBF750FC20780F2876
:104F600007D0072807D00B2807D00D2807D00E2818
:104F700007D0002070BD012070BD022070BD03204D
:104F800070BD042070BD0000001001400000002032
:104F9000000C01402DE9FF4F83B0044629A1FBF727
:104FA00011F9009029A12046FBF70CF9824629A1AE
:104FB0002046FBF707F9834628A12046FBF702F9B4
:104FC000814629A12046FBF7FDF880460098FBF7B3
:104FD00017F901905046FBF713F906465846FBF7C0
:104FE0000FF905464846FBF70BF904464046FBF728
:104FF00007F9019907468A1B0099083AC91D0498C8
:10500000FBF7F2F8721B0AF10401521F0598FBF737
:10501000EBF82A1B0BF10401521F0698FBF7E4F88A
:10502000E21B09F10A010B3A1098FBF7DDF8119821
:1050300007B0A7F1090208F10801BDE8F04FFBF73E
:10504000D3B80000426F6F6B65723A005349443A1F
:10505000000000004349443A0000000053746172AC
:105060007454696D653A0000456E6454696D653A23
:10507000000000002DE9F0410E46074601221049CC
:105080001048FEF7BBFE1048112201680F48FEF7DA
:10509000E3FE00240FE000BF04EB441000EB8000AF
:1050A00038440546094A6421FEF784FE284608A1D3
:1050B000FBF7C4F8641CB442EEDBBDE8F0810000ED
:1050C0002D0000204404002004000020740600206D
:1050D0000A0000002DE9F84F002483464FF6FF76C2
:1050E0004FF482794FF4887A2746DFF8AC8045E0A8
:1050F000FFF7D4FA050033D02A2D1CD0232D4FF012
:105100001A034FF0C80249464FF0100000960FD026
:10511000FCF766FD0BF804505A4649461020FCF790
:1051200005FE1EA251461020FCF700FE641C17E08D
:10513000FCF756FD27E01A23C8224D4649461020A9
:105140000096FCF74DFD641E5A460BF80470294684
:105150001020FCF7EBFD11A251461020FCF7E6FDF4
:105160006420FBF74BFBD8F810004546401CC8F8FC
:1051700010000A2802D100F05DF82F615846FBF7B5
:105180003FF80928B4D31A23C822494610200096B4
:10519000FCF726FDBDE8F88F080000202D2D2D2DF1
:1051A0002D2D2D2D0000000081760A0AC2760A0CF2
:1051B0000275090E41757047014600200B22430815
:1051C00003EBC01011F8013B521E1844C0B2F6D1D7
:1051D00070472DE9F041044690F80402002728B3F7
:1051E000D4F82C5294F8010201232A462146FEF7F6
:1051F000D3FD08B1012719E0002084F80402D4F897
:105200002002D4F81812281A88420FD294F80362A8
:105210000AE0D4F818020123054494F801022A4652
:105220002146FEF7B9FD761E022EF2D23846BDE8C1
:10523000F081000038B501212F48FBF719FC2F4CF5
:1052400010B160680930606020680025401C206053
:105250003B2803DD6068401CC4E9005060683B28BF
:1052600003DDA068401CC4E9015025A1264822683E
:10527000FDF782FE244822A10A306268FDF77CFE19
:10528000214822A10A30FAF791FF1F481CA11430CF
:10529000A268FDF771FE1C481CA11430FAF786FFC6
:1052A0001B4800F59E710570FAF780FF16491848F3
:1052B0000A31FAF77BFF14491548FAF777FF1021F6
:1052C00014A20846FCF732FD114A10217E20FCF79B
:1052D0002DFDE068401C00F06FF800280BD1E0685D
:1052E0006423401CE0604FF6FF700090D7221946FF
:1052F0001020FCF775FC38BD0008014008000020B4
:105300002530326400000000900100203A000000C7
:105310006800002043757272656E742054696D6573
:105320003A20000070B50122174D1402214628468C
:10533000FBF7A3FB6420FBF761FA00222146284615
:10534000FBF79BFB6420FBF759FA01222146284614
:10535000FBF793FB6420FBF751FA00222146284615
:10536000FBF78BFB012210212846FBF786FB4FF44D
:105370007A70FBF743FAFFF75DFF2846BDE87040FF
:1053800000221021FBF779BB0008014010B588B15D
:10539000D0F8001271B191F800225AB1B1F806228A
:1053A000B0F80402824205D191F80102FEF7E8FC50
:1053B000C00700D0092010BD10B59AB004463421B2
:1053C0000DA8FAF7E8FE34216846FAF7E4FE04EB8C
:1053D0004410184900EB800001440DA88131FAF710
:1053E00024FF15A10DA8FAF729FF024613A168466C
:1053F000FDF7C2FD6846FAF743FF04460EA1002000
:10540000FAF71CFF02460DA16846FDF7B5FD684698
:10541000FAF736FF0A498A68944208D149688142FE
:1054200005DB0A30814202DC00201AB010BD0120E9
:10543000FBE70000AE0100203A00000025730000E9
:105440000800002000000000000000000000000034
:1054500000000000000000183C3C3C181800181820
:10546000000000000000006666660000000000000A
:10547000000000000000006C6CFE6C6C6CFE6C6C3C
:10548000000000000018183C66060C183060663CEE
:105490001818000000000E1B5B6E30180C76DAD86E
:1054A000700000000000001C36361C06F66666DC44
:1054B00000000000000000181818000000000000A4
:1054C000000000000000003018180C0C0C0C0C1828
:1054D000183000000000000C181830303030301840
:1054E000180C000000000000006C38FE386C000052
:1054F00000000000000000000018187E18180000CE
:10550000000000000000000000000000000038382B
:1055100030180000000000000000007E00000000C5
:10552000000000000000000000000000000038380B
:10553000000000000000006060303018180C0C06FD
:105540000600000000000078CCECECCCDCDCCC7871
:105550000000000000000030383E30303030303085
:10556000000000000000003C66666030180C067EFB
:10557000000000000000003C666660386066663C23
:10558000000000000000000C0C6C6C6C66FE60609B
:10559000000000000000007E0606063E6060301E2F
:1055A0000000000000000038180C3E666666663C8D
:1055B000000000000000007E60303018180C0C0C59
:1055C000000000000000003C66666E3C7666663CAB
:1055D000000000000000003C666666667C30181C17
:1055E00000000000000000000038380000003838DB
:1055F00000000000000000000038380000003838CB
:10560000301800000000006030180C060C183060E4
:10561000000000000000000000007E007E0000008E
:1056200000000000000000060C18306030180C0666
:10563000000000000000003C6666301818001818D2
:10564000000000000000007EC3C3F3DBDBF303FEB9
:1056500000000000000000183C6666667E66666614
:10566000000000000000003E6666663E6666663E1C
:10567000000000000000003C666606060666663C08
:10568000000000000000001E366666666666361E74
:10569000000000000000007E0606063E0606067EAC
:1056A000000000000000007E0606063E0606060614
:1056B000000000000000003C666606067666667C18
:1056C00000000000000000666666667E666666662C
:1056D000000000000000003C181818181818183CAA
:1056E0000000000000000060606060606066663C72
:1056F00000000000000000666636361E363666661C
:105700000000000000000006060606060606067EEB
:1057100000000000000000C6C6EED6D6D6C6C6C63B
:1057200000000000000000C6C6CEDEF6E6C6C6C613
:10573000000000000000003C666666666666663C27
:10574000000000000000003E6666663E0606060693
:10575000000000000000003C666666666666663C07
:10576000306000000000003E6666663E3666666693
:10577000000000000000003C66060C183060663C2B
:10578000000000000000007E1818181818181818DB
:105790000000000000000066666666666666663C9D
:1057A00000000000000000666666666666663C18DB
:1057B00000000000000000C6C6C6D6D6D66C6C6CD1
:1057C0000000000000000066662C1818346666664B
:1057D00000000000000000666666663C1818181895
:1057E000000000000000007E606030180C06067E9D
:1057F000000000000000003C0C0C0C0C0C0C0C0C0D
:105800000C0C3C0000000006060C0C181830306030
:10581000600000000000003C30303030303030306C
:1058200030303C0000183C66000000000000000022
:105830000000000000000000000000000000000068
:105840000000FF00001C18300000000000000000F5
:105850000000000000000000003C60607C66667C88
:105860000000000000000006063E66666666663EB2
:105870000000000000000000003C66060606663CD2
:105880000000000000000060607C66666666667C62
:105890000000000000000000003C66667E06063C3A
:1058A00000000000000000780C0C0C7E0C0C0C0CAE
:1058B0000000000000000000007C66666666667CF2
:1058C00060603E0000000006063E6666666666662C
:1058D0000000000000001818001E18181818187E84
:1058E0000000000000003030003C303030303030FC
:1058F00030301E0000000006066666361E366666FC
:10590000000000000000001E181818181818187E53
:105910000000000000000000007ED6D6D6D6D6C615
:105920000000000000000000003E666666666666D5
:105930000000000000000000003C66666666663CF1
:105940000000000000000000003E66666666663EDD
:105950000606060000000000007C66666666667C3F
:1059600060606000000000000066760E0606060615
:105970000000000000000000007C06063C60603E65
:10598000000000000000000C0C7E0C0C0C0C0C78CD
:105990000000000000000000006666666666667C27
:1059A00000000000000000000066666666663C18A5
:1059B000000000000000000000C6D6D6D6D66C6CF1
:1059C00000000000000000000066663C183C6666AF
:1059D0000000000000000000006666666666663C27
:1059E00030180F0000000000007E6030180C067EAA
:1059F00000000000000000301818180C060C1818E1
:105A00001830000000000018181818181818181876
:105A1000181818000000000C1818183060301818FA
:105A2000180C00000000008EDB7100000000000078
:105A3000000000000000000000000000010203045C
:105A4000060708090000000001020304010305071E
:105A5000090E10121416181C1E000004000200018A
:105A60008000400020001000080004000200000038
:105A700000800040002000100008004000200010BE
:105A8000000800040002A400E8A1A700ECA1A800FF
:105A9000A7A1B000E3A1B100C0A1B700A4A1D700A5
:105AA000C1A1E000A4A8E100A2A8E800A8A8E9001C
:105AB000A6A8EA00BAA8EC00ACA8ED00AAA8F200DB
:105AC000B0A8F300AEA8F700C2A1F900B4A8FA008C
:105AD000B2A8FC00B9A80101A1A81301A5A81B0147
